{
  "_format": "hh-sol-artifact-1",
  "contractName": "samsContract",
  "sourceName": "contracts/samsContract.sol",
  "abi": [
    {
      "inputs": [],
      "stateMutability": "nonpayable",
      "type": "constructor"
    },
    {
      "inputs": [],
      "name": "contractAdmin",
      "outputs": [
        {
          "internalType": "address",
          "name": "",
          "type": "address"
        }
      ],
      "stateMutability": "view",
      "type": "function"
    },
    {
      "inputs": [
        {
          "internalType": "string",
          "name": "_username",
          "type": "string"
        },
        {
          "internalType": "string",
          "name": "_first_name",
          "type": "string"
        },
        {
          "internalType": "string",
          "name": "_last_name",
          "type": "string"
        },
        {
          "internalType": "string",
          "name": "_email",
          "type": "string"
        }
      ],
      "name": "createAccount",
      "outputs": [],
      "stateMutability": "nonpayable",
      "type": "function"
    },
    {
      "inputs": [],
      "name": "isAdmin",
      "outputs": [
        {
          "internalType": "bool",
          "name": "",
          "type": "bool"
        }
      ],
      "stateMutability": "view",
      "type": "function"
    },
    {
      "inputs": [],
      "name": "loginUser",
      "outputs": [
        {
          "internalType": "bool",
          "name": "",
          "type": "bool"
        }
      ],
      "stateMutability": "view",
      "type": "function"
    },
    {
      "inputs": [],
      "name": "userCheck",
      "outputs": [
        {
          "components": [
            {
              "internalType": "string",
              "name": "username",
              "type": "string"
            },
            {
              "internalType": "string",
              "name": "first_name",
              "type": "string"
            },
            {
              "internalType": "string",
              "name": "last_name",
              "type": "string"
            },
            {
              "internalType": "string",
              "name": "email",
              "type": "string"
            },
            {
              "internalType": "address",
              "name": "userAddress",
              "type": "address"
            }
          ],
          "internalType": "struct samsContract.User",
          "name": "",
          "type": "tuple"
        }
      ],
      "stateMutability": "view",
      "type": "function"
    }
  ],
  "bytecode": "0x608060405234801561001057600080fd5b50336000806101000a81548173ffffffffffffffffffffffffffffffffffffffff021916908373ffffffffffffffffffffffffffffffffffffffff160217905550610cb2806100606000396000f3fe608060405234801561001057600080fd5b50600436106100575760003560e01c80634ae060981461005c5780637795524514610078578063a19ed68614610096578063b6db75a0146100b4578063fec408c1146100d2575b600080fd5b610076600480360381019061007191906107d3565b6100f0565b005b610080610221565b60405161008d919061099b565b60405180910390f35b61009e610245565b6040516100ab91906109b6565b60405180910390f35b6100bc610292565b6040516100c991906109b6565b60405180910390f35b6100da6102f9565b6040516100e791906109d1565b60405180910390f35b60006040518060a001604052808681526020018581526020018481526020018381526020013373ffffffffffffffffffffffffffffffffffffffff1681525090506001819080600181540180825580915050600190039060005260206000209060050201600090919091909150600082015181600001908051906020019061017992919061067b565b50602082015181600101908051906020019061019692919061067b565b5060408201518160020190805190602001906101b392919061067b565b5060608201518160030190805190602001906101d092919061067b565b5060808201518160040160006101000a81548173ffffffffffffffffffffffffffffffffffffffff021916908373ffffffffffffffffffffffffffffffffffffffff16021790555050505050505050565b60008054906101000a900473ffffffffffffffffffffffffffffffffffffffff1681565b60008060006102526102f9565b9050604051806020016040528060008152508051906020012081600001518051906020012014610285576001915061028a565b600091505b819250505090565b60003373ffffffffffffffffffffffffffffffffffffffff1660008054906101000a900473ffffffffffffffffffffffffffffffffffffffff1673ffffffffffffffffffffffffffffffffffffffff1614156102f157600190506102f6565b600090505b90565b610301610701565b610309610701565b60005b600180549050811015610673573373ffffffffffffffffffffffffffffffffffffffff166001828154811061034457610343610bf9565b5b906000526020600020906005020160040160009054906101000a900473ffffffffffffffffffffffffffffffffffffffff1673ffffffffffffffffffffffffffffffffffffffff16141561066057600181815481106103a6576103a5610bf9565b5b90600052602060002090600502016040518060a00160405290816000820180546103cf90610aef565b80601f01602080910402602001604051908101604052809291908181526020018280546103fb90610aef565b80156104485780601f1061041d57610100808354040283529160200191610448565b820191906000526020600020905b81548152906001019060200180831161042b57829003601f168201915b5050505050815260200160018201805461046190610aef565b80601f016020809104026020016040519081016040528092919081815260200182805461048d90610aef565b80156104da5780601f106104af576101008083540402835291602001916104da565b820191906000526020600020905b8154815290600101906020018083116104bd57829003601f168201915b505050505081526020016002820180546104f390610aef565b80601f016020809104026020016040519081016040528092919081815260200182805461051f90610aef565b801561056c5780601f106105415761010080835404028352916020019161056c565b820191906000526020600020905b81548152906001019060200180831161054f57829003601f168201915b5050505050815260200160038201805461058590610aef565b80601f01602080910402602001604051908101604052809291908181526020018280546105b190610aef565b80156105fe5780601f106105d3576101008083540402835291602001916105fe565b820191906000526020600020905b8154815290600101906020018083116105e157829003601f168201915b505050505081526020016004820160009054906101000a900473ffffffffffffffffffffffffffffffffffffffff1673ffffffffffffffffffffffffffffffffffffffff1673ffffffffffffffffffffffffffffffffffffffff168152505091505b808061066b90610b52565b91505061030c565b508091505090565b82805461068790610aef565b90600052602060002090601f0160209004810192826106a957600085556106f0565b82601f106106c257805160ff19168380011785556106f0565b828001600101855582156106f0579182015b828111156106ef5782518255916020019190600101906106d4565b5b5090506106fd9190610746565b5090565b6040518060a0016040528060608152602001606081526020016060815260200160608152602001600073ffffffffffffffffffffffffffffffffffffffff1681525090565b5b8082111561075f576000816000905550600101610747565b5090565b600061077661077184610a18565b6109f3565b90508281526020810184848401111561079257610791610c5c565b5b61079d848285610aad565b509392505050565b600082601f8301126107ba576107b9610c57565b5b81356107ca848260208601610763565b91505092915050565b600080600080608085870312156107ed576107ec610c66565b5b600085013567ffffffffffffffff81111561080b5761080a610c61565b5b610817878288016107a5565b945050602085013567ffffffffffffffff81111561083857610837610c61565b5b610844878288016107a5565b935050604085013567ffffffffffffffff81111561086557610864610c61565b5b610871878288016107a5565b925050606085013567ffffffffffffffff81111561089257610891610c61565b5b61089e878288016107a5565b91505092959194509250565b6108b381610a65565b82525050565b6108c281610a65565b82525050565b6108d181610a77565b82525050565b60006108e282610a49565b6108ec8185610a54565b93506108fc818560208601610abc565b61090581610c6b565b840191505092915050565b600060a083016000830151848203600086015261092d82826108d7565b9150506020830151848203602086015261094782826108d7565b9150506040830151848203604086015261096182826108d7565b9150506060830151848203606086015261097b82826108d7565b915050608083015161099060808601826108aa565b508091505092915050565b60006020820190506109b060008301846108b9565b92915050565b60006020820190506109cb60008301846108c8565b92915050565b600060208201905081810360008301526109eb8184610910565b905092915050565b60006109fd610a0e565b9050610a098282610b21565b919050565b6000604051905090565b600067ffffffffffffffff821115610a3357610a32610c28565b5b610a3c82610c6b565b9050602081019050919050565b600081519050919050565b600082825260208201905092915050565b6000610a7082610a83565b9050919050565b60008115159050919050565b600073ffffffffffffffffffffffffffffffffffffffff82169050919050565b6000819050919050565b82818337600083830152505050565b60005b83811015610ada578082015181840152602081019050610abf565b83811115610ae9576000848401525b50505050565b60006002820490506001821680610b0757607f821691505b60208210811415610b1b57610b1a610bca565b5b50919050565b610b2a82610c6b565b810181811067ffffffffffffffff82111715610b4957610b48610c28565b5b80604052505050565b6000610b5d82610aa3565b91507fffffffffffffffffffffffffffffffffffffffffffffffffffffffffffffffff821415610b9057610b8f610b9b565b5b600182019050919050565b7f4e487b7100000000000000000000000000000000000000000000000000000000600052601160045260246000fd5b7f4e487b7100000000000000000000000000000000000000000000000000000000600052602260045260246000fd5b7f4e487b7100000000000000000000000000000000000000000000000000000000600052603260045260246000fd5b7f4e487b7100000000000000000000000000000000000000000000000000000000600052604160045260246000fd5b600080fd5b600080fd5b600080fd5b600080fd5b6000601f19601f830116905091905056fea26469706673582212205551651206bc67ce1a4deb90f868e73f4f6fc6c27980ad3d9c07517b5829710e64736f6c63430008070033",
  "linkReferences": {},
  "deployedLinkReferences": {}
}